:400000000080002011000000D1000000D100000008B5054B1A6803F53F5302331A6000F035FA00F05DF800BFFA460040044B05481B1A062B02D9044B03B11847704700BF4D
:400040004B81FF1F4881FF1F0000000005490648091A891001EBD171491002D0034B03B1184770474881FF1F4881FF1F0000000010B5064C237843B9FFF7D8FF044B13B18A
:400080000448AFF300800123237010BD4881FF1F00000000CC27000008B5084B1BB108490848AFF300800848036813B9BDE80840CCE7064B002BF9D09847F7E700000000AC
:4000C0004C81FF1FCC270000C880FF1F0000000008B502F037FB03680C2B00D1FEE7FEE708B5104E104D16E029686B68AC68002204E051F8040B43F8040B0432A242F8D12D
:40010000E868002203E0002143F8041B04328242F9D11035013E002EE6D102F019FB02F00DFBFEE701000000302A000008B5104A104B1A60104A136843F400731360002381
:400140000AE0032B03D80D4A52F8231000E00C490C4A42F8231001332F2BF2D90A4B1A780A4B1A70074A0A4B1A6000F041FD08BD0004FA050CED00E014ED00E000000000D1
:40018000D10000000080FF1FBC760040C080FF1F08ED00E001BE7047024A137843F0010313707047F646004010B5044605E0084B186800F0F1FDA4F50044B4F5004FF6D8A9
:4001C000034B586800FB04F000F0E6FD10BD00BFCC80FF1F08B5034B1B7A00FB03F000F0DBFD08BDCC80FF1F08B500F0DDFD00BF00BF00BF00BF00BF00BF00BF00BF00BF76
:4002000000BF00BF00BF00BF00BF00BF00BF064A13889BB243F0040313801388BFF36F8F00F0C6FD08BD00BF0048004070B504460E46074B1D681F2802D90020FFF7AAFFFB
:4002400004F01F04103455F8240045F8246070BD08ED00E038B504460D46072902D90020FFF798FF1F2C02D90020FFF793FF04F01F0000F1604000F564406D01EDB2057020
:4002800038BD00BF002306E0421812F8012C13449BB2013989B20029F6D1584280B2704730B4002306E01C5CE4B2CD5CAC4205D101339BB29342F6D3002000E0022030BC4F
:4002C000704700BF004700BF08B58022024B1A70FFF762FF08BD00BFFA4600402DE9F04182B00C46164602AF27F8022D01230B7048701546A270130ACB7002F104081FFA97
:4003000088F12046FFF7BEFF04F80800731DC0F30720E054063517236355F11D96233A4689B2204600F0C6FC02B0BDE8F08100BF70B505460E461446084B984203D010B15C
:400340000020FFF727FF002004E0013CAB19E35C1844C0B2002CF8D170BD00BF0080004008B501380B2873D8DFE800F0060F18212A33453C4E576069C1EB01610B0203F5B6
:400380007F3303F57073012167E0C1EB01610B0203F57F3303F2C13304215EE0C1EB01610B0203F57F3303F2C533022155E0C1EB01610B0203F57F3303F2C93304214CE025
:4003C000C1EB01610B0203F57F3303F57473012143E0C1EB01610B0203F57F3303F2D13301213AE0C1EB01610B0203F57F3303F2D633022131E0C1EB01610B0203F57F335E
:4004000003F2D233022128E0C1EB01610B0203F57F3303F5757302211FE0C1EB01610B0203F57F3303F57673042116E0C1EB01610B0203F57F3303F5777301210DE0C1EBAD
:4004400001610B0203F57F3303F57873042104E00020FFF79FFE02210023012902D11878C0B200E00020022903D11A78587842EA0020042909D11A78587842EA002298780B
:4004800042EA0042D87842EA006008BD08B50A4B1B7803F0C003802B0CD10021064B19700220FFF75DFF28B100210220FFF758FFFFF708FF08BD00BFFA460040F8B5064678
:4004C00001460320FFF74CFF0130070231460420FFF746FF074431460320FFF741FF013000020024254608E003785A1ED2B2FD2A00D801252344DCB20130B842F4D3314682
:400500000320FFF72DFF01300002C0080F4B9F4201D0FF0808E04FF4004705E000F190431B782344DCB20130B842F7D36442E4B231460120FFF714FF844202D11DB906205E
:40054000F8BD0620F8BD0020F8BD00BFC0FF03002DE9F04FADF51F7D054600F083FC10B10020FFF717FE00F08FFB62B64FF0000A57460A24D0460DB9FF2300E02B460DF268
:4005800076224FF4967152A800F0B6FB0DB1013CE4B20CB10028EED1002840F08782BDF87632062B26D99DF84821012A24D19DF84B819DF84A2142EA0828414608F1070237
:4005C0009A421BD8B2F5967F1AD84A1D52AB9E5C0A1D9A5C42EA062606315B5C172B11D108F1040189B252A8FFF74CFE86420BD100260AE0042608E0042606E0032604E043
:40060000032602E0042600E00826002E40F0E9819DF84C919DF84921A2F13103142B00F2B881DFE813F015007D00B601A5001301B60119012E01A5004001A801B601B60144
:40064000B601B601B601B601B601B601B6012600002F00F0C881B8F1000F40F0C7810020FFF72CFFB0FA80F040098DF84C01012215E2002F00F0BD81B8F1030F04D040F20D
:400680002313984540F0B8819DF84EB19DF84D3143EA0B2BB8F1030F06D0A8F103020DF24F1107A802F07AF8A9F14003DBB23F2B08D80BF1806303F5006318011023019345
:4006C000802309E0B9F1030F00F299810BEB092318024FF4807301935B4500D80A26002E40F09081019A07A9FFF7DAFD0646002840F08A81B9F1030F00F28881019B9A4590
:4007000040F2868109F510300BEB0020202207A90B4419464001FFF7C3FD06460022BEE1002F00F07781B8F1010F40F07681B9F1030F00F27581C04B1B681B68C3F30742DD
:40074000914502D1C3F3072305E0914501D9002301E04FF480738DF84C311B0A8DF84D31FF238DF84E3100238DF84F31042296E1342A15D1002F00F05681B8F1030F40F0E7
:400780005581A9F14003DBB23F2B02D84FF0100A01E04FF4907A5246002107A802F009F8002F00F04681B8F1020F40F24F81A8F103020DF24F1107AB03EB0A0001F0EEFFAC
:4007C000C2441FFA8AFAAAF1030A1FFA8AFAA9F14003DBB23F2B05D800F0CAFB80234FF0100803E04FF480734FF49078D04540F030819DF84EA19DF84D2142EA0A2A5345D8
:4008000000D80A26002E40F02981B9F13F0F0FD80AEB092292B2884B1B681968C1F30F2311F0FF0F01D001339BB2934200F21881434607AA5146484600F01EFB00B10A269E
:40084000FFF7D2FC4FF0000A524628E1002F40F02B810426002222E1002F00F0068108EB0A03B3F5967F00F20381424653A907AB03EB0A0001F092FFC2441FFA8AFA002222
:400880000DE1B8F1000F40F0F68004AB6B4A92E8030083E8030053AA82E803004FF0000A01270822FBE0002F00F0E880B8F1030F40F0E7809DF84EB19DF84D3143EA0B2BDA
:4008C000A9F14003DBB23F2B10D84FEA0B11BBF17F0F01D8334600E00A23002B40F0D48010225748FFF724FD019011E00BEB09210902BBF1FF0F01D8334600E00A23002BC6
:4009000040F0C5804FF480720020FFF711FD0190B9F13F0F0FD809F510320BEB02225201002306E0995C01980144C9B2019101339BB21F2BF6D9B9F1030F16D1BBF1FF0FEC
:4009400013D100210520FFF70BFDC0B2019BC0EB03095FFA89F900210620FFF701FDC0B2C0EB09095FFA89F30193019B5B428DF84C31012293E00020FFF7A0FD10B98022ED
:40098000304B1A7000F08CF9FFF706FC0426002285E02D4B1B68002B7CD0002F7DD08DF80820ADF80A8053AA0392002104910591069204A902A89847BDF81420B2F5937FFC
:4009C00003D3069953AB994205D0069B03B92AB99DF8106063E00E26002260E00E2600225DE000225BE00426002258E00426002255E00426002252E0042600224FE0092699
:400A000000224CE000224AE0002248E0002246E0002244E00426002241E0042600223EE0042600223BE00426002238E00426002235E00426002232E0DC80FF1FD027000072
:400A400000800040FA4600406481FF1F0426002225E04FF0000A0326524620E000221EE04FF0000A0A26524619E00426002216E00326002213E00426002210E004260022A6
:400A80000DE0042600220AE01E46002207E01E46002204E00526002201E00526002252A93046FFF71BFC01E04FF0000A002D3FF462AD002F7FF45FAD0DF51F7DBDE8F08F3A
:400AC00038B50020FFF7FAFC08B1062400E00024134D2B681A6800210846FFF729FC6B681B78C01AC0B24042C0B2834202D12B681B6813B90020FFF74DFB0A4B1B7803F0BE
:400B0000C003402B00D024B10020064B1870FFF71FFD1420FFF71CFDFFF7D6FB38BD00BFDC80FF1FFA460040F0B40022174611E050F82760F3B226F0FF0608E001EB420561
:400B400011F812406D78A5550132013BDBB2002BF4D101370B2FEBD9F0BC704706220E4B1A705222A3F580731A700C4B1B78DBB20B4A1370A2F29D620023138007211170E1
:400B800008490B704820023108701370053213700222054B1A707047004300400F010049A14600400640004001400040064B1B78DBB203F00701054A11701B090132137044
:400BC0004422034B1A707047CF0100496E5800407658004008B50A46002101F0EAFD08BD08B501F0DBFD08BD08B501F0D7FD08BD38B572B600240CE01C4D630019194A0009
:400C000011462A44084691882858FFF7E3FF0134E4B2062CF0D9154C04F12C0104F15800FFF782FF124A137843F0020313701032137843F0020313700A2204F188010D48FA
:400C4000FFF7CEFF0C4A137843F0080313700B4C61232370FFF782FF81232370FFF7A6FF0E2207490748FFF7BFFF38BDD827000003500140F051004022430040004800409F
:400C8000A0430040B043004008B562B60221002000F09AFB0122014B1A7008BD6881FF1F08B500F0D5FB08BD08B5012000F0A8FC08BD00BF70B50E46154603EB83035C00A0
:400CC000A4B240220146022000F050FC04E00120FFF76AFA013CA4B2022000F029FC08B9002CF4D1022000F023FC10B12E80002070BD102070BD00BF2DE9F04180460E4652
:400D0000174603EB83035C00A4B2402900D94026204B1B7833B916E00120FFF745FA013DADB200E0254600F0EDFB08B9002DF3D100F0E8FBA8B100F0EBFBFFF7B5FF002212
:400D4000144B1A700DE000F0E3FB50B100F0DAFB38B1FFF7A9FF04E00120FFF725FA013CA4B2012000F0E4FB012801D0002CF3D1012000F0DDFB012807D13246414600F022
:400D800055FC38800020BDE8F08100233B801020BDE8F0816881FF1F0230800803D000BF01380046FCD17047EFF3108072B6704780F31088704700BF10B500F003F900F007
:400DC000B1F910BB012000F08FF9072818D102210F4800F009F902280AD102E00120FFF7F9F90C4B1B7813F0020FF7D0002409E0084B1B7813F0020FE9D04FF0FF3401E099
:400E00004FF0FF3400F0B4F900E00424204610BD7C81FF1F2247004010B500F0D3F800F081F9D0B900F0C0F90446072812D102E00120FFF7CFF90A4B1B7813F0020FF7D0A8
:400E4000074B1B7813F0020F04D0054B1B789B0800D1002400F08CF900E00424204610BD2247004008B5FFF7D7FF034610B9FFF7A3FF0346184608BD2DE9F041441FE4B2F2
:400E80003A2C01D9002500E0012510F0800F00D00125412800D901253F2803D8B1F5807F06D808E0802900D90125102B02D102E0012500E0012502B90125002D50D198465C
:400EC00016460F46044600F02DF9002847D1434632463946204600F0A1F8064607283AD102E00120FFF776F91F4B1B7813F0020FF7D01D4B1B7813F0020F06D01A4B1B788F
:400F00009B0805D04FF0FF3603E04FF0FF3600E02E4606BB154A537812783946204600F0BDF8072804D0064615E00120FFF752F90D4B1B7813F0020FF7D00B4B1B7813F0C3
:400F4000020F06D0084B1B789B0804D04FF0FF3601E04FF0FF3600F00BF9354600E004252846BDE8F08100BF224700407C81FF1F08B5FFF719FF0F4A137843F00803137075
:400F80001032137843F008031370C8220A4B1A700A4A137843F0100313701032137843F010031370064B1B7813F0200FFAD0FFF7FFFE08BDA043004001470040AC4300402A
:400FC0000047004008B5FFF7EFFE064A137843F0080313701032137843F008031370FFF7E7FE08BDA043004070B506460D4600240CE00120FFF7EEF8064B1B7813F0010F15
:40100000F7D0054B1B7833550134E4B2AC42F3D3204670BD224700402047004070B41D4C247814F0020F2CD01B4CB6252570D5252570022525700234247814F0020F22D1E6
:40104000154C2070002404E0165D134D2E700134A4B29C42F8D3B3F5807F16D13F2816D800F5103001EB00214801002305E01A5CD2B209490A7001339BB21F2BF7D90720D4
:4010800006E0042004E0092002E0072000E0072070BC7047224700402047004030B4104C247814F0020F15D00E4CB6252570D8252570052525700234247814F0020F0BD122
:4010C000084C2070080A2070C9B2217022702370072002E0042000E0092030BC704700BF22470040204700400C4B1B7813F0020F0FD00B4BB6221A70E1221A700E221A7075
:4011000002331B7813F0020F05D1054B187007207047042070470920704700BF224700402047004010B5FFF73FFE0F4B1B78A3B901220D4B1A700D4B1B6813F0010F0ED06B
:401140000A4A136823F00103136000BF00BF00BF0122054B5A60002402E0042400E00024FFF726FE204610BD6C81FF1F0400084008B5FFF719FE0A4B00221A705B68012B1C
:401180000AD1084A136843F00103136000BF00BF00BF0022024B5A60FFF70AFE08BD00BF6C81FF1F04000840074B1B7813F0020F08D0064BB6221A70E0221A700D221A70D5
:4011C00007207047042070472247004020470040F8B5FFF7E9FD06463C4A137843F0010313701032137843F0010313700125384B1D700227943B1F7002F5E2521B321378FF
:4012000003F07F0313700020FEF7E4FF314C237803F0F9032370304A137803F0DF03137023782B4323702846FEF7D4FF2820FEF7D1FF2A4B1A7802F07F021A701A7802F060
:40124000BF021A7023783B4323703846FEF7C2FF237843F0040323700024214B1C7001331C703046FFF7A4FD07211720FEF7F2FF1C491720FEF7DAFF07211820FEF7EAFF05
:4012800019491820FEF7D2FF07211520FEF7E2FF16491520FEF7CAFF07212046FEF7DAFF13492046FEF7C2FF07212846FEF7D2FF10492846FEF7BAFF07210C20FEF7CAFF92
:4012C0000D490C20FEF7B2FFF8BD00BFA54300409D6000409443004012600040F85100408460004099260000BD240000952600003126000061260000A126000010B500238F
:4013000004E00124234AD4542344DBB2002BF8D0214B18700023214A1370214A1370214A1370214A1370214A1370214A1370214A1370214B4FF400021A604FF080721A60B9
:401340004FF400121A6001221A6002221A6011B1012906D00BE0194A137803F0FE0313700AE0164A137843F00103137004E0134A137843F0010313700322114B1A7080228F
:40138000203B1A700120FFF707FD04220D4B1A7010BD00BF8881FF1FA081FF1FA681FF1FA481FF1FA581FF1FA181FF1F8C81FF1FA381FF1F1C82FF1F00E100E00960004094
:4013C000286000401260004038B504460D46064B1B7823B9FFF7FCFE0122034B1A7029462046FFF78BFF38BD7481FF1F002304E001210E4AD1540B44DBB2002BF8D0002349
:401400000B4A13700B4A13700B4A13700B4A13700B4A13700B4A13700B4A137003220B4B1A708022203B1A70704700BF8881FF1FA681FF1FA481FF1FA581FF1FA181FF1F8F
:401440008C81FF1FA381FF1F1C82FF1F2860004008B5FFF7A9FC214A137803F07F0313700A32137803F0FB031370A2F5E3520D3A137803F0FE0313701032137803F0FE0324
:401480001370174B1A7842F080021A701A7842F040021A70FFF78CFC124B4FF400021A604FF080721A604FF400121A6001221A6002221A6000F0E2F84FF480520A4B1A60EA
:4014C00000230A4A13700A4A13700A4A13700A4A13700A4A13700A4A137008BD08600040F851004080E100E080E200E0A481FF1FA581FF1FA181FF1F8C81FF1FA381FF1F12
:401500007481FF1F014B1878704700BFA581FF1F064B1B7813F0FF0F05D0044B1878C0B200221A7070470020704700BFA481FF1F00EB40008300024A13445878704700BF14
:40154000B081FF1F431EDBB2072B0BD8064B00011A18185C00F00F00537843EA0020023880B2704700207047FC5F0040431EDBB2072B3CD8F0B4074600EB4004A3001C4C16
:401580002344DB889BB2C3F500739A4208D900EB400293002344DA8892B2C2F5007292B200EB4004A300124C2344DB7843EA1223104D04012E192B55D3B2737039B909E03A
:4015C000CE5C3D010C4C665501339BB200E000239A42F5D8420002449300054A134400225A705A79D2B20001044B1A54F0BC7047B081FF1FFC5F004078600040FE5F00407F
:40160000431EDBB2072B0BD8420002449300054A134400225A705A79D2B20001024B1A54704700BFB081FF1FFE5F004070B5D9B1054614460E46C8B1082819D8FFF782FFCC
:40164000A04203D22846FFF77DFF0446002305E02901094A525CF25401339BB2A342F7D32846FFF7CDFF04E0002402E0002400E00024204670BD00BF78600040024B187857
:40168000C0F38010704700BF8F45004008B50C4B18780138C0B200F093F90A4B1B79DBB29A1C00EBC20042680749CB5C02EBC3035B68596A0B78054A1380516008BD00BFC5
:4016C000A581FF1F006000409081FF1F9481FF1F08B50E4B18780138C0B200F071F90C4B1B79DBB29A1C00EBC20042680949CB5C02EBC3035B68DB69597813F8022B42EA0C
:40170000012205490A804B6008BD00BFA581FF1F006000409081FF1F9481FF1F10B50022194B1A80194B18780138C0B200F048F9174AD3781279D2B2911C00EBC1004168C7
:401740000ABBDBB21348825C01EBC20149685A1ED2B2022A17D803F10053013B01EBC3000B4A9278D2B211F833309A420BD8406802EB4202910042185468034B5C60415A02
:40178000198092689A6010BD9481FF1FA581FF1F006000409081FF1F08B55B4B1A79D2B21B7813F0800F4DD0574B5B78013B052B00F28D80DFE803F0212B3B8B8B03524BF6
:4017C000DB78DBB2212B09D1FFF760FF4F4B1B889BB2002B7DD000F0DFFE08BD4A4BDB78DBB2222B77D1FFF773FF484B1B889BB2002B72D000F0D0FE08BDFFF78FFF434B03
:401800001B889BB2002B6AD000F0C6FE08BD002A67D13D4B9B7813F0FF0F64D13B4901230B803B4B1A444A6000F0B6FE08BD002A5BD1364901230B80364B1A444A6000F070
:40184000ABFE08BD304B5B78DBB20A2B0DD00B2B2FD0092B4BD1FFF761FF2C4B1B889BB2002B46D000F0C0FE08BD002A43D1264B9B7813F0FF0F40D1234BDB78DBB2244978
:401880008B54895CC9B2244B9B5CDBB2994203D20021214B995409E01F4B9B5CDBB2012B04D91B4B9B5CDBB21B498B5400F032FD08BD22BB144B9B78DBB2012B21D8124B7D
:4018C0009B78DBB213498B5400F024FD08BD002008BD002008BD002008BD002008BD002008BD002008BD002008BD002008BD002008BD002008BD002008BD002008BD00205B
:4019000008BD002008BD00BF006000409481FF1F8081FF1F8881FF1F8481FF1F10B401233EE019461A010C242148845403EB4300820020480244527912F0FF0F13D003EB04
:40194000430082001B480244127912F0800F04D01801194A024494700AE01801164A02440820907004E01801134A0244802090704800084482000F480244D488E4B2080184
:401980000B4901448C71D088C0F30720C871D088C0B20871D288C2F307224A710133DBB2082BBED9FF22054B1A7010BC704700BF70600040B081FF1FFC5F00400A60004084
:4019C000074B1A78074B03EBC2035B681A7C824204D9C000103018444068704700207047A081FF1FA8280000F8B5404B1B7813F0FF0F79D03D4B18780138C0B2FFF7E0FFA6
:401A0000047AC2683A4B1878C0B200236AE01178884264D13749095CC9B25578A9425ED1917801F07F01D67806F00306DFF8C8E04D000D44AF000EEB07054FF0000C85F8DB
:401A400003C092F802C085F804C092F803C00EF807C097882F8192F90250002D0DDA012E01D1072700E00D274E000E44B500224E35446F7101266E700CE0012E01D10527BD
:401A800000E009274E000E44B5001B4E35446F7100266E70DFF868E00F010EEB07060125B57001FA05F529448D00134929440D89C5F307250EF807500D89EDB27570CE887C
:401AC000F6B20E4D3D44AE71CE88C6F30726EE71CE88F6B22E71C988C1F30721697108320133DBB2A34292D3F8BD00BFA581FF1FA181FF1F9081FF1FB081FF1F7060004039
:401B0000FC5F0040034B1A78034B03EBC2035868704700BFA081FF1FA828000008B5084B18780138C0B2FFF74BFF30B142681279023200EBC203586808BD002008BD00BF36
:401B4000A581FF1F2DE9F041002310E06A4D5900CA189600AC190022AA55A270E2702281A272627034462C4462710133DBB2082BECD940B90AE000226049CA546049CA5463
:401B80000133DBB200E00023002BF4D05D4B1B7813F0FF0F00F0AD805A4B18780138C0B2FFF70EFF4368DB7913F0400F05D0564A137843F00103137004E0534A137803F01C
:401BC000FE031370057A012464E0C16800235DE08A7802F07F02944255D1264604EB4407BA00454F3A44128992B28F88BA4207D204EB440E4FEA8E02DFF8FCE07244178137
:401C00000A783E4FBA5CD2B24F78BA423BD191F802C0DFF8E4E07200324497000EEB070282F804C0CA780EF80720CA7802F0030291F90270002F13DA012A02D14FF007087B
:401C400001E04FF00D08DFF8B0E0720002EB060C4FEA8C07774487F8058001267E7012E0012A02D14FF0050801E04FF00908DFF888E0720002EB060C4FEA8C07774487F894
:401C8000058000267E7008310133DBB2AB429FD30134E4B2082C98D9C06800220CE0837803F07F0310F8084B03EB43039900124B19448C720132D2B2AA42F0D3FFF72EFFB3
:401CC000124B1860002301210FE00B4D4A00501884002C44E380228992B213449BB203F0010213449BB20131C9B20829EDD9FFF715FEBDE8F08100BFB081FF1F9081FF1F4D
:401D00002082FF1FA581FF1FA381FF1FAC81FF1F08B5154B1B7903F07F035A1ED2B2072A20D8590019448A0010490A44917841F0010191700021D170517841F00201517083
:401D4000127912F0800F05D01B01094A1A448D23937004E01B01064A1A448923937000F0D9FA08BD002008BD00600040B081FF1FFC5F0040264B1B7903F07F035A1ED2B228
:401D8000072A43D810B5590019448A0021490A44917801F0FE0191700021D17019017F241D484454517801F0FD015170127912F0800F14D003EB43018A0016490A44527858
:401DC000D2B2012A05D11B0102461A440C23937019E01B01104A1A440D23937013E003EB43018A000B490A445278D2B2012A05D11B01094A1A440823937004E01B01064A7F
:401E00001A440923937000F085FA10BD0020704700600040B081FF1FFC5F004010B50E4B1C79E4B20D4B18780138C0B2FFF7C8FD43681B799C4201D9012C0AD8084A135D19
:401E4000DBB208490B55044B9B78DBB21355012010BD002010BD00BF00600040A581FF1F9081FF1F2082FF1F10B5944B1B78DBB20021934A118013F0800F00F0AF808F4A83
:401E80005278D2B20A2A00F27581DFE812F06B00730173017301730173010B007301940073019C00854BDB78DBB2012B09D1FFF729FE4268824B5A6012221A8000F06CFBF4
:401EC00010BD7E4BDB78DBB2022B13D17B4B9878FFF776FD002800F04F814268784B5A605A68D1785A68927842EA01221A8000F053FB10BD714BDB78DBB2032B05D02EE095
:401F00000A7811440133DBB201E000236D496B4A9278D2B2934203D20A7812F0FF0FEFD1664B9B78DBB2EE2B00D16749634B9B7813F0FF0F07D0614B9B78DBB2634A127CF5
:401F4000934200D162490B7813F0FF0F00F016810B785B4A1380516000F01EFB10BD00F0A3FB10BD13F0030317D0022B40F0088153490B80514B1B7903F07F0303EB430382
:401F80009A00544B1A449278D2B2534B1A7000225A704B6000F000FB10BD494902230B804E4B1A78D2B24C4B1A7000225A704B6000F0F2FA10BD424B01221A80484A5A609D
:401FC00000F0EAFA10BD3E4A012313803B4B1B7944490B44536000F0DFFA10BD374A5278013A0A2A00F2CE80DFE812F04C00CC009700CC000B00CC00CC00CC001300CC0036
:4020000030002E4B9B78DBB2374A137000F082F910BD2A4B9B7803F0FF041BB1601EC0B2FFF7CEFC04B110B9002C40F0AD802C4B1B78DBB29C4206D0294B1C7001202B4B38
:402040001870FFF77FFD00F065F910BDFFF7E6FE002800F09B80194A1379DBB21279D2B223490A70234AD25CD2B21E49CB5CDBB29A4204D001221D4B1A70FFF7B5FC00F037
:4020800049F910BD03F00303012B35D04BB1022B7ED10A4B9B7813F0FF0F7BD1FFF76AFE10BD064B9B78DBB2012B75D10B4A137803F0FD03137000F02DF910BD0060004043
:4020C0009481FF1F7829000094280000F82900006C290000B081FF1F7881FF1FA381FF1FA581FF1F9081FF1F8C81FF1FA481FF1FA181FF1F2082FF1F2D4B1B7913F0FF0FF4
:402100004CD12B4B98781B79DBB22A49CA5C22EA0002CA5400F0FEF810BD03F00303012B17D04BB1022B3BD1214B9B7813F0FF0F38D1FFF7EDFD10BD1D4B9B78DBB2012BA8
:4021400032D11D4A137843F00203137000F0E2F810BD174B1B7913F0FF0F27D1144B98781B79DBB21349CA5C22EA0002CA5400F0D1F810BD002010BD002010BD002010BD8E
:40218000002010BD002010BD002010BD002010BD002010BD002010BD002010BD002010BD002010BD002010BD002010BD002010BD00600040A881FF1FA381FF1F1D4B1978E1
:4021C0001D4A13889BB20B449BB2138000220FE01A494B681B78DBB2194883544B6801334B600132D2B20B889BB2013B9BB20B80124B1B889BB20BB1072AE9D90D4B1B78BE
:40220000DBB2082B00D05AB10E490B7883F080030B700F210C4B197002210C4B197004E0022309490B7009490B70094B1A70014B1A7070471C82FF1F2282FF1F9481FF1FE6
:4022400000600040A281FF1F8D81FF1FA681FF1F1D82FF1F0222074B1A708022064B1A700F22064B1A700023054A1370054A137001207047A681FF1FA281FF1F8D81FF1F75
:402280001C82FF1F1D82FF1F08B5FFF797FF08BD10B4194B197801F00F010239C9B2174A13889BB20B449BB21380002011E0144A5468144B1B5CDBB22370536801335360EC
:4022C0000130C0B20139C9B213889BB2013B9BB213800B4B1B889BB20BB10029E7D10A4B19700A4A137883F0800313700B22084B1A7010BC704700BF296000402282FF1F92
:402300009481FF1F006000401D82FF1FA281FF1F8D81FF1F0623064A1370064A13708022054B1A700022054B1A700120704700BFA681FF1F8D81FF1FA281FF1F1D82FF1F53
:40234000064B9B6843B1054B9A6810709A6804490988518000229A60704700BF9481FF1F2282FF1F08B5134B1A78D2B21A701B78DBB213F0800F02D00F4A137008BD022009
:40238000FFF7DEFF0D4B1B7803F06003202B05D0402B06D043B9FFF767FD06E000F084F903E000F0ADF900E0002010B90322024B1A7008BD286000408D81FF1F0060004068
:4023C00008B5094B1978094A13889BB20B449BB213800022064B1A700120FFF7B1FF0322044B1A7008BD00BF1C82FF1F2282FF1FA681FF1F8D81FF1F08B50B4B1B78DBB269
:40240000042B06D0062B07D0022B0BD1FFF7D8FF08BDFFF73DFF08BD0320FFF791FF0322024B1A7008BD00BFA681FF1F8D81FF1F08B50022044B1A700120FFF781FF0322EF
:40244000024B1A7008BD00BFA681FF1F8D81FF1F08B50B4B1B7813F0FF0F07D0084A137843F0800307490B70002313700022064B1A700120FFF764FF0322044B1A7008BDC4
:402480008C81FF1F08600040A681FF1F8D81FF1F08B5094B1B78DBB2042B06D0062B07D0022B07D1FFF7F0FE08BDFFF7C1FF08BDFFF7CEFF08BD00BFA681FF1F08B5284BB5
:4024C0001B78DBB213F0100F48D013F0800F0CD003F00F03012B16D1FFF744FF214B1B7813F0800F11D1012312E013F0400F03D0FFF7CEFF01230BE013F0200F07D0FFF744
:402500007BFF012304E0002302E0002300E0002323B3134B1B7813F0800F1FD1124B1B78124A12781343124A13701278D2B2934214D10C4B1B78DBB2094A127812F0800FED
:4025400007D1084B1B78DBB2054A1370137803F00F03044A1278D2B29342EAD108BD00BF286000408D81FF1FA281FF1F1D82FF1F296000400022064B1A80064B9B682BB146
:40258000044A916800230B7092685380704700BF2282FF1F9481FF1F08B50F4B1B889BB213B9FFF757FE15E002220C4B1A7000220B4B1A70FFF7DEFF0A4AD179937943EA3A
:4025C0000123054A128892B2934201D2024A1380FFF7F4FD012008BD9481FF1FA681FF1FA281FF1F0060004008B504220B4B1A7080220B4B1A70FFF7BDFF0A4AD17993793C
:4026000043EA0123084A128892B2934201D2064A13800B22054B1A70012008BDA681FF1FA281FF1F006000409481FF1F8D81FF1F0122094B1A700F3B9B7C084B1B7B03F0DE
:402640000303934204D0054AD37B83F08003D3730122024B5A7370470B600040B081FF1F02220A4B1A700F3B93F82230084B1B7E03F00303012B04D0054AD37E83F080033F
:40268000D3760122024B5A76704700BF0B600040B081FF1F704700BF08B5FEF7A7FE08BD08B5FEF7EBFF08BD08B5124B1B7803F00303012B02D0022B04D00FE00D4B1B79AE
:4026C000DBB20CE00B4B1B7903F07F0303EB43039A00094B1A44937ADBB200E00023074A1268D35C032B02D1FFF756F808BD002008BD00BF00600040B081FF1FAC81FF1F03
:4027000008B50B4B1B7813F0800F0CD0084B5B78DBB2012B09D1074B074A5A6012781A80FFF73AFF08BD002008BD002008BD00BF006000409481FF1F6C28000008B5FEF7B5
:40274000BFF9FEE7014B1868704700BF4481FF1F0E4B70B51E460E4C0025E41AA410A54204D056F8253098470135F8E700F04EF9084B094C1E46E41AA4100025A54204D05D
:4027800056F8253098470135F8E770BD182A0000182A0000182A0000202A000010B5431E0A44914204D011F8014B03F8014FF8E710BD03460244934202D003F8011BFAE7B0
:4027C00070470000002B00005F0000000000000069A0122E00320101005100407000C0510040100000000140001000140140000800400140000A004C014000020050014060
:40280000200000007E027C40EE0AEE0A33803640CC30A640A780A640A780A640A78008080F40C20CAE40AF80EE50AC08AF40000A01450040015200400117014001190140FE
:40284000034001400241014002420140024301400347014003480140024C0140015101404000000000000000C0000000280000000001040001000000000000000001435941
:40288000555342000000303030303100000000000000000012034D005300460054003100300030000100000001000000B028000001000000F8290000000000000000000061
:4028C00001000000C828000001000000CC29000002000000EC28000001000000FC28000000000000E828000003000000000001034000030000008203400003000100000093
:40290000042900000000000038290000000000002C2900000000000000000000010000004429000001000000DE290000410000006C82FF1FB082FF1F410000002882FF1F98
:402940002482FF1F240005010900A1000900A1000900150025FF7508954091020900150025FF750895408102C0C000000A0330003000300031000000040309042C03430003
:402980007900700072006500730073002000530065006D00690063006F006E0064007500630074006F0072002203500053006F0043003300200042006F006F0074006C0025
:4029C0006F00610064006500720000000902290001010080190904000002030000020921110100012224000705010340000107058203400001000000120100020000000826
:402A0000B4041DB70130010280010000F8B500BFF8BC08BC9E467047990000002D010000F8B500BFF8BC08BC9E46704771000000402A0000C880FF1F80000000700100005E
:402A4000000000000000E02EC05D00001800000000366E01C4270000C827000000000000000000000000000000000000000000000000000000000000000000000000000094
:402A8000000000000000000000000000000000000000000000000000000000000000000000000000000000000000000000000000000000000000000000000000E480FF1F94
:402AC00000000000000000000000000000000000000000000000000000000000000000000000000000000000000000000000000000000000000000000000000000000000D6
:402B00000000000000000000000000000000000000000000000000000000000000000000000000000000000000000000000000000000000000000000000000000000000095
:402B40000000000000000000000000000000000000000000000000000000000000000000000000000000000000000000000000000000000000000000000000000000000055
:402B80000000000000000000000000000000000000000000000000000000000000000000000000000000000000000000000000000000000000000000000000000000000015
:020000040003F7
:40FFC00000000000000000000000000000000000000000000100010000000000000000000000000000000000000000000000000000000000000000000000000000000000FF
:0200000480007A
:4000000000000000000000000000000000000000000000000000000000000000000000000000000000000000000000000000000000000000000000000000000000000000C0
:400040000000000000000000000000000000000000000000000000000000000000000000000000000000000000000000000000000000000000000000000000000000000080
:400080000000000000000000000000000000000000000000000000000000000000000000000000000000000000000000000000000000000000000000000000000000000040
:4000C0000000000000000000000000000000000000000000000000000000000000000000000000000000000000000000000000000000000000000000000000000000000000
:0200000490006A
:0400000000004007B5
:0200000490105A
:04000000BC90ACAF55
:0200000490303A
:02000000A70255
:0200000490402A
:4000000000000000000000000000000000000000000000000000000000000000000000000000000000000000000000000000000000000000000000000000000000000000C0
:400040000000000000000000000000000000000000000000000000000000000000000000000000000000000000000000000000000000000000000000000000000000000080
:400080000000000000000000000000000000000000000000000000000000000000000000000000000000000000000000000000000000000000000000000000000000000040
:4000C0000000000000000000000000000000000000000000000000000000000000000000000000000000000000000000000000000000000000000000000000000000000000
:0200000490501A
:0C00000000012E12A06900012E22476BA7
:00000001FF